{
  "_format": "hh-sol-artifact-1",
  "contractName": "MultiSigWallet",
  "sourceName": "contracts/access/multisign/MultiSigWallet.sol",
  "abi": [
    {
      "inputs": [
        {
          "internalType": "address[]",
          "name": "_owners",
          "type": "address[]"
        },
        {
          "internalType": "uint256",
          "name": "_required",
          "type": "uint256"
        }
      ],
      "stateMutability": "nonpayable",
      "type": "constructor"
    },
    {
      "anonymous": false,
      "inputs": [
        {
          "indexed": true,
          "internalType": "address",
          "name": "sender",
          "type": "address"
        },
        {
          "indexed": true,
          "internalType": "uint256",
          "name": "transactionId",
          "type": "uint256"
        }
      ],
      "name": "Confirmation",
      "type": "event"
    },
    {
      "anonymous": false,
      "inputs": [
        {
          "indexed": true,
          "internalType": "address",
          "name": "sender",
          "type": "address"
        },
        {
          "indexed": false,
          "internalType": "uint256",
          "name": "value",
          "type": "uint256"
        }
      ],
      "name": "Deposit",
      "type": "event"
    },
    {
      "anonymous": false,
      "inputs": [
        {
          "indexed": true,
          "internalType": "uint256",
          "name": "transactionId",
          "type": "uint256"
        }
      ],
      "name": "Execution",
      "type": "event"
    },
    {
      "anonymous": false,
      "inputs": [
        {
          "indexed": true,
          "internalType": "uint256",
          "name": "transactionId",
          "type": "uint256"
        }
      ],
      "name": "ExecutionFailure",
      "type": "event"
    },
    {
      "anonymous": false,
      "inputs": [
        {
          "indexed": true,
          "internalType": "address",
          "name": "owner",
          "type": "address"
        }
      ],
      "name": "OwnerAddition",
      "type": "event"
    },
    {
      "anonymous": false,
      "inputs": [
        {
          "indexed": true,
          "internalType": "address",
          "name": "owner",
          "type": "address"
        }
      ],
      "name": "OwnerRemoval",
      "type": "event"
    },
    {
      "anonymous": false,
      "inputs": [
        {
          "indexed": false,
          "internalType": "uint256",
          "name": "required",
          "type": "uint256"
        }
      ],
      "name": "RequirementChange",
      "type": "event"
    },
    {
      "anonymous": false,
      "inputs": [
        {
          "indexed": true,
          "internalType": "address",
          "name": "sender",
          "type": "address"
        },
        {
          "indexed": true,
          "internalType": "uint256",
          "name": "transactionId",
          "type": "uint256"
        }
      ],
      "name": "Revocation",
      "type": "event"
    },
    {
      "anonymous": false,
      "inputs": [
        {
          "indexed": true,
          "internalType": "uint256",
          "name": "transactionId",
          "type": "uint256"
        }
      ],
      "name": "Submission",
      "type": "event"
    },
    {
      "anonymous": false,
      "inputs": [
        {
          "indexed": true,
          "internalType": "uint256",
          "name": "transactionId",
          "type": "uint256"
        }
      ],
      "name": "SubmitTransaction",
      "type": "event"
    },
    {
      "stateMutability": "payable",
      "type": "fallback"
    },
    {
      "inputs": [],
      "name": "MAX_OWNER_COUNT",
      "outputs": [
        {
          "internalType": "uint256",
          "name": "",
          "type": "uint256"
        }
      ],
      "stateMutability": "view",
      "type": "function"
    },
    {
      "inputs": [
        {
          "internalType": "address",
          "name": "owner",
          "type": "address"
        }
      ],
      "name": "addOwner",
      "outputs": [],
      "stateMutability": "nonpayable",
      "type": "function"
    },
    {
      "inputs": [
        {
          "internalType": "uint256",
          "name": "_required",
          "type": "uint256"
        }
      ],
      "name": "changeRequirement",
      "outputs": [],
      "stateMutability": "nonpayable",
      "type": "function"
    },
    {
      "inputs": [
        {
          "internalType": "uint256",
          "name": "transactionId",
          "type": "uint256"
        }
      ],
      "name": "confirmTransaction",
      "outputs": [],
      "stateMutability": "nonpayable",
      "type": "function"
    },
    {
      "inputs": [
        {
          "internalType": "uint256",
          "name": "",
          "type": "uint256"
        },
        {
          "internalType": "address",
          "name": "",
          "type": "address"
        }
      ],
      "name": "confirmations",
      "outputs": [
        {
          "internalType": "bool",
          "name": "",
          "type": "bool"
        }
      ],
      "stateMutability": "view",
      "type": "function"
    },
    {
      "inputs": [
        {
          "internalType": "uint256",
          "name": "transactionId",
          "type": "uint256"
        }
      ],
      "name": "executeTransaction",
      "outputs": [],
      "stateMutability": "nonpayable",
      "type": "function"
    },
    {
      "inputs": [
        {
          "internalType": "uint256",
          "name": "transactionId",
          "type": "uint256"
        }
      ],
      "name": "getConfirmationCount",
      "outputs": [
        {
          "internalType": "uint256",
          "name": "",
          "type": "uint256"
        }
      ],
      "stateMutability": "view",
      "type": "function"
    },
    {
      "inputs": [
        {
          "internalType": "uint256",
          "name": "transactionId",
          "type": "uint256"
        }
      ],
      "name": "getConfirmations",
      "outputs": [
        {
          "internalType": "address[]",
          "name": "",
          "type": "address[]"
        }
      ],
      "stateMutability": "view",
      "type": "function"
    },
    {
      "inputs": [],
      "name": "getOwners",
      "outputs": [
        {
          "internalType": "address[]",
          "name": "",
          "type": "address[]"
        }
      ],
      "stateMutability": "view",
      "type": "function"
    },
    {
      "inputs": [
        {
          "internalType": "bool",
          "name": "pending",
          "type": "bool"
        },
        {
          "internalType": "bool",
          "name": "executed",
          "type": "bool"
        }
      ],
      "name": "getTransactionCount",
      "outputs": [
        {
          "internalType": "uint256",
          "name": "",
          "type": "uint256"
        }
      ],
      "stateMutability": "view",
      "type": "function"
    },
    {
      "inputs": [
        {
          "internalType": "uint256",
          "name": "from",
          "type": "uint256"
        },
        {
          "internalType": "uint256",
          "name": "to",
          "type": "uint256"
        },
        {
          "internalType": "bool",
          "name": "pending",
          "type": "bool"
        },
        {
          "internalType": "bool",
          "name": "executed",
          "type": "bool"
        }
      ],
      "name": "getTransactionIds",
      "outputs": [
        {
          "internalType": "uint256[]",
          "name": "",
          "type": "uint256[]"
        }
      ],
      "stateMutability": "view",
      "type": "function"
    },
    {
      "inputs": [
        {
          "internalType": "address",
          "name": "",
          "type": "address"
        }
      ],
      "name": "isOwner",
      "outputs": [
        {
          "internalType": "bool",
          "name": "",
          "type": "bool"
        }
      ],
      "stateMutability": "view",
      "type": "function"
    },
    {
      "inputs": [
        {
          "internalType": "uint256",
          "name": "",
          "type": "uint256"
        }
      ],
      "name": "owners",
      "outputs": [
        {
          "internalType": "address",
          "name": "",
          "type": "address"
        }
      ],
      "stateMutability": "view",
      "type": "function"
    },
    {
      "inputs": [
        {
          "internalType": "address",
          "name": "owner",
          "type": "address"
        },
        {
          "internalType": "address",
          "name": "newOwner",
          "type": "address"
        }
      ],
      "name": "replaceOwner",
      "outputs": [],
      "stateMutability": "nonpayable",
      "type": "function"
    },
    {
      "inputs": [],
      "name": "required",
      "outputs": [
        {
          "internalType": "uint256",
          "name": "",
          "type": "uint256"
        }
      ],
      "stateMutability": "view",
      "type": "function"
    },
    {
      "inputs": [
        {
          "internalType": "uint256",
          "name": "transactionId",
          "type": "uint256"
        }
      ],
      "name": "revokeConfirmation",
      "outputs": [],
      "stateMutability": "nonpayable",
      "type": "function"
    },
    {
      "inputs": [
        {
          "internalType": "address",
          "name": "to",
          "type": "address"
        },
        {
          "internalType": "uint256",
          "name": "value",
          "type": "uint256"
        },
        {
          "internalType": "bytes",
          "name": "data",
          "type": "bytes"
        }
      ],
      "name": "submitTransaction",
      "outputs": [
        {
          "internalType": "uint256",
          "name": "",
          "type": "uint256"
        }
      ],
      "stateMutability": "nonpayable",
      "type": "function"
    },
    {
      "inputs": [],
      "name": "transactionCount",
      "outputs": [
        {
          "internalType": "uint256",
          "name": "",
          "type": "uint256"
        }
      ],
      "stateMutability": "view",
      "type": "function"
    },
    {
      "inputs": [
        {
          "internalType": "uint256",
          "name": "",
          "type": "uint256"
        }
      ],
      "name": "transactions",
      "outputs": [
        {
          "internalType": "address",
          "name": "to",
          "type": "address"
        },
        {
          "internalType": "uint256",
          "name": "value",
          "type": "uint256"
        },
        {
          "internalType": "bytes",
          "name": "data",
          "type": "bytes"
        },
        {
          "internalType": "bool",
          "name": "executed",
          "type": "bool"
        }
      ],
      "stateMutability": "view",
      "type": "function"
    },
    {
      "stateMutability": "payable",
      "type": "receive"
    }
  ],
  "bytecode": "0x60806040523480156200001157600080fd5b5060405162001f6038038062001f608339810160408190526200003491620002f6565b81518160328211158015620000495750818111155b80156200005557508015155b80156200006157508115155b620000d95760405162461bcd60e51b815260206004820152603760248201527f4d756c746953696757616c6c65743a20696e76616c696420726571756972656460448201527f206e756d626572206f72206f776e65727320636f756e7400000000000000000060648201526084015b60405180910390fd5b60005b84518110156200021f5760026000868381518110620000ff57620000ff620003d0565b6020908102919091018101516001600160a01b031682528101919091526040016000205460ff1615801562000163575060006001600160a01b03168582815181106200014f576200014f620003d0565b60200260200101516001600160a01b031614155b620001bd5760405162461bcd60e51b815260206004820152602360248201527f4d756c746953696757616c6c65743a206f776e6572206578697374206f72206e6044820152621d5b1b60ea1b6064820152608401620000d0565b600160026000878481518110620001d857620001d8620003d0565b6020908102919091018101516001600160a01b03168252810191909152604001600020805460ff1916911515919091179055806200021681620003e6565b915050620000dc565b5083516200023590600390602087019062000242565b505050600455506200040e565b8280548282559060005260206000209081019282156200029a579160200282015b828111156200029a57825182546001600160a01b0319166001600160a01b0390911617825560209092019160019091019062000263565b50620002a8929150620002ac565b5090565b5b80821115620002a85760008155600101620002ad565b634e487b7160e01b600052604160045260246000fd5b80516001600160a01b0381168114620002f157600080fd5b919050565b600080604083850312156200030a57600080fd5b82516001600160401b03808211156200032257600080fd5b818501915085601f8301126200033757600080fd5b81516020828211156200034e576200034e620002c3565b8160051b604051601f19603f83011681018181108682111715620003765762000376620002c3565b6040529283528183019350848101820192898411156200039557600080fd5b948201945b83861015620003be57620003ae86620002d9565b855294820194938201936200039a565b97909101519698969750505050505050565b634e487b7160e01b600052603260045260246000fd5b6000600182016200040757634e487b7160e01b600052601160045260246000fd5b5060010190565b611b42806200041e6000396000f3fe60806040526004361061010c5760003560e01c8063a8abe69a1161009a578063c642747411610061578063c642747414610350578063d74f8edd14610370578063dc8452cd14610385578063e20056e61461039b578063ee22610b146103bb57005b8063a8abe69a146102ad578063b5dc40c3146102da578063b77bf600146102fa578063ba51a6df14610310578063c01a8c841461033057005b806354741525116100de57806354741525146101ed5780637065cb481461021b5780638b51d13f1461023b5780639ace38c21461025b578063a0e67e2b1461028b57005b8063025e7c271461011557806320ea8d86146101525780632f54bf6e146101725780633411c81c146101b257005b3661011357005b005b34801561012157600080fd5b50610135610130366004611433565b6103db565b6040516001600160a01b0390911681526020015b60405180910390f35b34801561015e57600080fd5b5061011361016d366004611433565b610405565b34801561017e57600080fd5b506101a261018d366004611468565b60026020526000908152604090205460ff1681565b6040519015158152602001610149565b3480156101be57600080fd5b506101a26101cd36600461148a565b600160209081526000928352604080842090915290825290205460ff1681565b3480156101f957600080fd5b5061020d6102083660046114c6565b6104fd565b604051908152602001610149565b34801561022757600080fd5b50610113610236366004611468565b61057e565b34801561024757600080fd5b5061020d610256366004611433565b610713565b34801561026757600080fd5b5061027b610276366004611433565b61079b565b60405161014994939291906114f0565b34801561029757600080fd5b506102a0610859565b604051610149919061155e565b3480156102b957600080fd5b506102cd6102c83660046115ab565b6108bb565b60405161014991906115f1565b3480156102e657600080fd5b506102a06102f5366004611433565b610a56565b34801561030657600080fd5b5061020d60055481565b34801561031c57600080fd5b5061011361032b366004611433565b610c31565b34801561033c57600080fd5b5061011361034b366004611433565b610cd4565b34801561035c57600080fd5b5061020d61036b36600461163f565b610e54565b34801561037c57600080fd5b5061020d603281565b34801561039157600080fd5b5061020d60045481565b3480156103a757600080fd5b506101136103b636600461170a565b610ed2565b3480156103c757600080fd5b506101136103d6366004611433565b61109d565b600381815481106103eb57600080fd5b6000918252602090912001546001600160a01b0316905081565b3360008181526002602052604090205460ff1661043d5760405162461bcd60e51b815260040161043490611734565b60405180910390fd5b60008281526001602090815260408083203380855292529091205483919060ff1661047a5760405162461bcd60e51b815260040161043490611778565b600084815260208190526040902060030154849060ff16156104ae5760405162461bcd60e51b8152600401610434906117c1565b6000858152600160209081526040808320338085529252808320805460ff191690555187927ff6a317157440607f36269043eb55f1287a5a19ba2216afeab88cd46cbcfb88e991a35050505050565b600080805b6005548110156105745784801561052b575060008181526020819052604090206003015460ff16155b8061054f575083801561054f575060008181526020819052604090206003015460ff165b15610562578161055e81611821565b9250505b8061056c81611821565b915050610502565b5090505b92915050565b33301461059d5760405162461bcd60e51b81526004016104349061183a565b6001600160a01b038116600090815260026020526040902054819060ff16156105d85760405162461bcd60e51b815260040161043490611871565b816001600160a01b03811661062f5760405162461bcd60e51b815260206004820152601d60248201527f4d756c746953696757616c6c65743a2076616c7565206973206e756c6c0000006044820152606401610434565b60035461063d9060016118b4565b600454603282111580156106515750818111155b801561065c57508015155b801561066757508115155b6106835760405162461bcd60e51b8152600401610434906118c7565b6001600160a01b038516600081815260026020526040808220805460ff1916600190811790915560038054918201815583527fc2575a0e9e593c00f959f8c92f12db2869c3395a3b0502d05e2516446f71f85b0180546001600160a01b03191684179055517ff39e6e1eb0edcf53c221607b54b00cd28f3196fed0a24994dc308b8f611b682d9190a25050505050565b600080805b600354811015610794576000848152600160205260408120600380549192918490811061074757610747611924565b60009182526020808320909101546001600160a01b0316835282019290925260400190205460ff1615610782578161077e81611821565b9250505b8061078c81611821565b915050610718565b5092915050565b6000602081905290815260409020805460018201546002830180546001600160a01b039093169391926107cd9061193a565b80601f01602080910402602001604051908101604052809291908181526020018280546107f99061193a565b80156108465780601f1061081b57610100808354040283529160200191610846565b820191906000526020600020905b81548152906001019060200180831161082957829003601f168201915b5050506003909301549192505060ff1684565b606060038054806020026020016040519081016040528092919081815260200182805480156108b157602002820191906000526020600020905b81546001600160a01b03168152600190910190602001808311610893575b5050505050905090565b6060600060055467ffffffffffffffff8111156108da576108da611629565b604051908082528060200260200182016040528015610903578160200160208202803683370190505b5090506000805b60055481101561099a57858015610933575060008181526020819052604090206003015460ff16155b806109575750848015610957575060008181526020819052604090206003015460ff165b15610988578083838151811061096f5761096f611924565b60209081029190910101526109856001836118b4565b91505b8061099281611821565b91505061090a565b60006109a68989611974565b67ffffffffffffffff8111156109be576109be611629565b6040519080825280602002602001820160405280156109e7578160200160208202803683370190505b5090508891505b87821015610a4a57838281518110610a0857610a08611924565b6020026020010151818a84610a1d9190611974565b81518110610a2d57610a2d611924565b602090810291909101015281610a4281611821565b9250506109ee565b98975050505050505050565b60035460609060009067ffffffffffffffff811115610a7757610a77611629565b604051908082528060200260200182016040528015610aa0578160200160208202803683370190505b5090506000805b600354811015610b7e5760008581526001602052604081206003805491929184908110610ad657610ad6611924565b60009182526020808320909101546001600160a01b0316835282019290925260400190205460ff1615610b6c5760038181548110610b1657610b16611924565b9060005260206000200160009054906101000a90046001600160a01b0316838381518110610b4657610b46611924565b6001600160a01b0390921660209283029190910190910152610b696001836118b4565b91505b80610b7681611821565b915050610aa7565b60008267ffffffffffffffff811115610b9957610b99611629565b604051908082528060200260200182016040528015610bc2578160200160208202803683370190505b509050600091505b82821015610c2857838281518110610be457610be4611924565b6020026020010151818381518110610bfe57610bfe611924565b6001600160a01b039092166020928302919091019091015281610c2081611821565b925050610bca565b95945050505050565b333014610c505760405162461bcd60e51b81526004016104349061183a565b6003548160328211801590610c655750818111155b8015610c7057508015155b8015610c7b57508115155b610c975760405162461bcd60e51b8152600401610434906118c7565b60048390556040518381527fa3f1ee9126a074d9326c682f561767f710e927faa811f7a99829d49dc421797a9060200160405180910390a1505050565b3360008181526002602052604090205460ff16610d035760405162461bcd60e51b815260040161043490611734565b60008281526020819052604090205482906001600160a01b0316610d7c5760405162461bcd60e51b815260206004820152602a60248201527f4d756c746953696757616c6c65743a207472616e73616374696f6e20646f6573604482015269081b9bdd08195e1a5cdd60b21b6064820152608401610434565b60008381526001602090815260408083203380855292529091205484919060ff1615610e005760405162461bcd60e51b815260206004820152602d60248201527f4d756c746953696757616c6c65743a207472616e73616374696f6e20616c726560448201526c18591e4818dbdb999a5c9b5959609a1b6064820152608401610434565b6000858152600160208181526040808420338086529252808420805460ff1916909317909255905187927f4a504a94899432a9846e1aa406dceb1bcfd538bb839071d49d1e5e23f5be30ef91a35050505050565b3360008181526002602052604081205490919060ff16610e865760405162461bcd60e51b815260040161043490611734565b6000610e93868686611265565b9050610e9e81610cd4565b60405181907fdce08ffd49d3e7091684341cab08a4ffba42fdb443cb0deb2c92729772f4704b90600090a295945050505050565b333014610ef15760405162461bcd60e51b81526004016104349061183a565b6001600160a01b038216600090815260026020526040902054829060ff16610f2b5760405162461bcd60e51b815260040161043490611734565b6001600160a01b038216600090815260026020526040902054829060ff1615610f665760405162461bcd60e51b815260040161043490611871565b60005b60035481101561100357846001600160a01b031660038281548110610f9057610f90611924565b6000918252602090912001546001600160a01b031603610ff1578360038281548110610fbe57610fbe611924565b9060005260206000200160006101000a8154816001600160a01b0302191690836001600160a01b03160217905550611003565b80610ffb81611821565b915050610f69565b506001600160a01b03808516600081815260026020526040808220805460ff1990811690915593871682528082208054909416600117909355915190917f8001553a916ef2f495d26a907cc54d96ed840d7bda71e73194bf5a9df7a76b9091a26040516001600160a01b038416907ff39e6e1eb0edcf53c221607b54b00cd28f3196fed0a24994dc308b8f611b682d90600090a250505050565b3360008181526002602052604090205460ff166110cc5760405162461bcd60e51b815260040161043490611734565b60008281526001602090815260408083203380855292529091205483919060ff166111095760405162461bcd60e51b815260040161043490611778565b600084815260208190526040902060030154849060ff161561113d5760405162461bcd60e51b8152600401610434906117c1565b61114685611395565b6111625760405162461bcd60e51b815260040161043490611778565b60008581526020819052604080822060038101805460ff1916600190811790915581549082015492519193926001600160a01b03909116916111a8906002860190611987565b60006040518083038185875af1925050503d80600081146111e5576040519150601f19603f3d011682016040523d82523d6000602084013e6111ea565b606091505b5050905080156112245760405187907f33e13ecb54c3076d8e8bb8c2881800a4d972b792045ffae98fdf46df365fed7590600090a261125c565b60038201805460ff1916905560405187907f526441bb6c1aba3c9a4a6ca1d6545da9c2333c8c48343ef398eb858d72b7923690600090a25b50505050505050565b6000836001600160a01b0381166112be5760405162461bcd60e51b815260206004820152601d60248201527f4d756c746953696757616c6c65743a2076616c7565206973206e756c6c0000006044820152606401610434565b600554604080516080810182526001600160a01b03888116825260208083018981528385018981526000606086018190528781529283905294909120835181546001600160a01b03191693169290921782555160018201559151909190600282019061132a9082611a4c565b50606091909101516003909101805460ff1916911515919091179055600580546001919060009061135c9084906118b4565b909155505060405181907fc0ba8fe4b176c1714197d43b9cc6bcf797a4a7461c5fe8d0ef6e184ae7601e5190600090a295945050505050565b600080805b60035481101561142957600084815260016020526040812060038054919291849081106113c9576113c9611924565b60009182526020808320909101546001600160a01b0316835282019290925260400190205460ff1615611404578161140081611821565b9250505b6004548203611417575060019392505050565b8061142181611821565b91505061139a565b5060009392505050565b60006020828403121561144557600080fd5b5035919050565b80356001600160a01b038116811461146357600080fd5b919050565b60006020828403121561147a57600080fd5b6114838261144c565b9392505050565b6000806040838503121561149d57600080fd5b823591506114ad6020840161144c565b90509250929050565b8035801515811461146357600080fd5b600080604083850312156114d957600080fd5b6114e2836114b6565b91506114ad602084016114b6565b60018060a01b038516815260006020858184015260806040840152845180608085015260005b818110156115325786810183015185820160a001528201611516565b50600060a0828601015260a0601f19601f83011685010192505050821515606083015295945050505050565b6020808252825182820181905260009190848201906040850190845b8181101561159f5783516001600160a01b03168352928401929184019160010161157a565b50909695505050505050565b600080600080608085870312156115c157600080fd5b84359350602085013592506115d8604086016114b6565b91506115e6606086016114b6565b905092959194509250565b6020808252825182820181905260009190848201906040850190845b8181101561159f5783518352928401929184019160010161160d565b634e487b7160e01b600052604160045260246000fd5b60008060006060848603121561165457600080fd5b61165d8461144c565b925060208401359150604084013567ffffffffffffffff8082111561168157600080fd5b818601915086601f83011261169557600080fd5b8135818111156116a7576116a7611629565b604051601f8201601f19908116603f011681019083821181831017156116cf576116cf611629565b816040528281528960208487010111156116e857600080fd5b8260208601602083013760006020848301015280955050505050509250925092565b6000806040838503121561171d57600080fd5b6117268361144c565b91506114ad6020840161144c565b60208082526024908201527f4d756c746953696757616c6c65743a206f776e657220646f6573206e6f7420656040820152631e1a5cdd60e21b606082015260800190565b60208082526029908201527f4d756c746953696757616c6c65743a207472616e73616374696f6e206e6f742060408201526818dbdb999a5c9b595960ba1b606082015260800190565b6020808252602a908201527f4d756c746953696757616c6c65743a20636f6e6669726d656420616c726561646040820152691e48195e1958dd5d195960b21b606082015260800190565b634e487b7160e01b600052601160045260246000fd5b6000600182016118335761183361180b565b5060010190565b6020808252601b908201527f4d756c746953696757616c6c65743a206f6e6c792077616c6c65740000000000604082015260600190565b60208082526023908201527f4d756c746953696757616c6c65743a206f776e657220616c72656164792065786040820152621a5cdd60ea1b606082015260800190565b808201808211156105785761057861180b565b60208082526037908201527f4d756c746953696757616c6c65743a20696e76616c696420726571756972656460408201527f206e756d626572206f72206f776e65727320636f756e74000000000000000000606082015260800190565b634e487b7160e01b600052603260045260246000fd5b600181811c9082168061194e57607f821691505b60208210810361196e57634e487b7160e01b600052602260045260246000fd5b50919050565b818103818111156105785761057861180b565b60008083546119958161193a565b600182811680156119ad57600181146119c2576119f1565b60ff19841687528215158302870194506119f1565b8760005260208060002060005b858110156119e85781548a8201529084019082016119cf565b50505082870194505b50929695505050505050565b601f821115611a4757600081815260208120601f850160051c81016020861015611a245750805b601f850160051c820191505b81811015611a4357828155600101611a30565b5050505b505050565b815167ffffffffffffffff811115611a6657611a66611629565b611a7a81611a74845461193a565b846119fd565b602080601f831160018114611aaf5760008415611a975750858301515b600019600386901b1c1916600185901b178555611a43565b600085815260208120601f198616915b82811015611ade57888601518255948401946001909101908401611abf565b5085821015611afc5787850151600019600388901b60f8161c191681555b5050505050600190811b0190555056fea2646970667358221220baa22d9024e331465040259a54e963ac2b20c4073698550d9ad170efae91a05364736f6c63430008140033",
  "linkReferences": {},
  "deployedLinkReferences": {}
}